{
  "_format": "hh-sol-artifact-1",
  "contractName": "USDCExchange",
  "sourceName": "contracts/USDCExchange.sol",
  "abi": [
    {
      "anonymous": false,
      "inputs": [
        {
          "indexed": false,
          "internalType": "uint256",
          "name": "newHourlyLimit",
          "type": "uint256"
        }
      ],
      "name": "ChangeHourlyLimit",
      "type": "event"
    },
    {
      "anonymous": false,
      "inputs": [
        {
          "indexed": false,
          "internalType": "uint256",
          "name": "newLINORate",
          "type": "uint256"
        }
      ],
      "name": "ChangeLINORate",
      "type": "event"
    },
    {
      "anonymous": false,
      "inputs": [
        {
          "indexed": false,
          "internalType": "address",
          "name": "newTreasury",
          "type": "address"
        }
      ],
      "name": "ChangeTreasury",
      "type": "event"
    },
    {
      "anonymous": false,
      "inputs": [
        {
          "indexed": false,
          "internalType": "uint256",
          "name": "newUSDCRate",
          "type": "uint256"
        }
      ],
      "name": "ChangeUSDCRate",
      "type": "event"
    },
    {
      "anonymous": false,
      "inputs": [
        {
          "indexed": false,
          "internalType": "address",
          "name": "minter",
          "type": "address"
        },
        {
          "indexed": false,
          "internalType": "uint256",
          "name": "amount",
          "type": "uint256"
        },
        {
          "indexed": false,
          "internalType": "uint256",
          "name": "fee",
          "type": "uint256"
        }
      ],
      "name": "Mint",
      "type": "event"
    },
    {
      "anonymous": false,
      "inputs": [
        {
          "indexed": true,
          "internalType": "address",
          "name": "previousOwner",
          "type": "address"
        },
        {
          "indexed": true,
          "internalType": "address",
          "name": "newOwner",
          "type": "address"
        }
      ],
      "name": "OwnershipTransferred",
      "type": "event"
    },
    {
      "anonymous": false,
      "inputs": [
        {
          "indexed": false,
          "internalType": "address",
          "name": "redeemer",
          "type": "address"
        },
        {
          "indexed": false,
          "internalType": "uint256",
          "name": "amount",
          "type": "uint256"
        },
        {
          "indexed": false,
          "internalType": "uint256",
          "name": "fee",
          "type": "uint256"
        }
      ],
      "name": "Redeem",
      "type": "event"
    },
    {
      "inputs": [
        {
          "internalType": "address",
          "name": "newTreasury",
          "type": "address"
        }
      ],
      "name": "changeTreasury",
      "outputs": [],
      "stateMutability": "nonpayable",
      "type": "function"
    },
    {
      "inputs": [],
      "name": "hourlyLimit",
      "outputs": [
        {
          "internalType": "uint256",
          "name": "",
          "type": "uint256"
        }
      ],
      "stateMutability": "view",
      "type": "function"
    },
    {
      "inputs": [
        {
          "internalType": "address",
          "name": "usdc_",
          "type": "address"
        },
        {
          "internalType": "address",
          "name": "lino_",
          "type": "address"
        }
      ],
      "name": "initialize",
      "outputs": [],
      "stateMutability": "nonpayable",
      "type": "function"
    },
    {
      "inputs": [],
      "name": "lino",
      "outputs": [
        {
          "internalType": "contract IStablecoin",
          "name": "",
          "type": "address"
        }
      ],
      "stateMutability": "view",
      "type": "function"
    },
    {
      "inputs": [],
      "name": "linoRate",
      "outputs": [
        {
          "internalType": "uint256",
          "name": "",
          "type": "uint256"
        }
      ],
      "stateMutability": "view",
      "type": "function"
    },
    {
      "inputs": [
        {
          "internalType": "uint256",
          "name": "amount",
          "type": "uint256"
        }
      ],
      "name": "mint",
      "outputs": [],
      "stateMutability": "nonpayable",
      "type": "function"
    },
    {
      "inputs": [],
      "name": "owner",
      "outputs": [
        {
          "internalType": "address",
          "name": "",
          "type": "address"
        }
      ],
      "stateMutability": "view",
      "type": "function"
    },
    {
      "inputs": [
        {
          "internalType": "uint256",
          "name": "amount",
          "type": "uint256"
        }
      ],
      "name": "redeem",
      "outputs": [],
      "stateMutability": "nonpayable",
      "type": "function"
    },
    {
      "inputs": [],
      "name": "renounceOwnership",
      "outputs": [],
      "stateMutability": "nonpayable",
      "type": "function"
    },
    {
      "inputs": [
        {
          "internalType": "uint256",
          "name": "_limit",
          "type": "uint256"
        }
      ],
      "name": "setHourlyLimit",
      "outputs": [],
      "stateMutability": "nonpayable",
      "type": "function"
    },
    {
      "inputs": [
        {
          "internalType": "uint256",
          "name": "_rate",
          "type": "uint256"
        }
      ],
      "name": "setLinoRate",
      "outputs": [],
      "stateMutability": "nonpayable",
      "type": "function"
    },
    {
      "inputs": [
        {
          "internalType": "uint256",
          "name": "_rate",
          "type": "uint256"
        }
      ],
      "name": "setUSDCRate",
      "outputs": [],
      "stateMutability": "nonpayable",
      "type": "function"
    },
    {
      "inputs": [
        {
          "internalType": "address",
          "name": "newOwner",
          "type": "address"
        }
      ],
      "name": "transferOwnership",
      "outputs": [],
      "stateMutability": "nonpayable",
      "type": "function"
    },
    {
      "inputs": [],
      "name": "treasury",
      "outputs": [
        {
          "internalType": "address",
          "name": "",
          "type": "address"
        }
      ],
      "stateMutability": "view",
      "type": "function"
    },
    {
      "inputs": [],
      "name": "usdReserves",
      "outputs": [
        {
          "internalType": "uint256",
          "name": "",
          "type": "uint256"
        }
      ],
      "stateMutability": "view",
      "type": "function"
    },
    {
      "inputs": [],
      "name": "usdc",
      "outputs": [
        {
          "internalType": "contract IERC20",
          "name": "",
          "type": "address"
        }
      ],
      "stateMutability": "view",
      "type": "function"
    },
    {
      "inputs": [],
      "name": "usdcRate",
      "outputs": [
        {
          "internalType": "uint256",
          "name": "",
          "type": "uint256"
        }
      ],
      "stateMutability": "view",
      "type": "function"
    }
  ],
  "bytecode": "0x608060405234801561001057600080fd5b50611727806100206000396000f3fe608060405234801561001057600080fd5b506004361061011b5760003560e01c8063715018a6116100b2578063a0712d6811610081578063db006a7511610066578063db006a751461022c578063ece9c23f1461023f578063f2fde38b1461024757600080fd5b8063a0712d6814610206578063b14f2a391461021957600080fd5b8063715018a6146101d157806377e27400146101d957806379a3c6ed146101ec5780638da5cb5b146101f557600080fd5b8063485cc955116100ee578063485cc955146101835780634ab2e7bd1461019857806361d027b3146101ab57806368297ff8146101be57600080fd5b8063074ab6a6146101205780631756193b14610150578063356397d2146101675780633e413bee14610170575b600080fd5b609854610133906001600160a01b031681565b6040516001600160a01b0390911681526020015b60405180910390f35b610159609a5481565b604051908152602001610147565b61015960995481565b609754610133906001600160a01b031681565b610196610191366004611570565b61025a565b005b6101966101a63660046115c2565b610395565b609b54610133906001600160a01b031681565b6101966101cc3660046115c2565b61048b565b61019661057a565b6101966101e73660046115c2565b6105e0565b610159609c5481565b6065546001600160a01b0316610133565b6101966102143660046115c2565b61066f565b610196610227366004611556565b610a32565b61019661023a3660046115c2565b610b3d565b610159610eb2565b610196610255366004611556565b610f33565b600054610100900460ff166102755760005460ff1615610279565b303b155b6102f05760405162461bcd60e51b815260206004820152602e60248201527f496e697469616c697a61626c653a20636f6e747261637420697320616c72656160448201527f647920696e697469616c697a656400000000000000000000000000000000000060648201526084015b60405180910390fd5b600054610100900460ff16158015610312576000805461ffff19166101011790555b61031a611015565b610322611080565b61032a6110f4565b609780546001600160a01b0380861673ffffffffffffffffffffffffffffffffffffffff199283161790925560988054928516928216929092179091556126c5609a5561275b609955609b8054909116331790558015610390576000805461ff00191690555b505050565b6065546001600160a01b031633146103ef5760405162461bcd60e51b815260206004820181905260248201527f4f776e61626c653a2063616c6c6572206973206e6f7420746865206f776e657260448201526064016102e7565b612710811115801561040357506126ac8110155b61044f5760405162461bcd60e51b815260206004820152601060248201527f4d75737420626520302d3125206665650000000000000000000000000000000060448201526064016102e7565b609a8190556040518181527f504c351244c07e0f214befbd1cd1f8c9c8b09b0d43109c12919904dfa5dc87ba906020015b60405180910390a150565b6065546001600160a01b031633146104e55760405162461bcd60e51b815260206004820181905260248201527f4f776e61626c653a2063616c6c6572206973206e6f7420746865206f776e657260448201526064016102e7565b61277481111580156104f957506127108110155b6105455760405162461bcd60e51b815260206004820152601060248201527f4d75737420626520302d3125206665650000000000000000000000000000000060448201526064016102e7565b60998190556040518181527fa5a6e753adc1d5a4b46c8ab0281e4ba933af57985e3d4bb57b49d736aca2589490602001610480565b6065546001600160a01b031633146105d45760405162461bcd60e51b815260206004820181905260248201527f4f776e61626c653a2063616c6c6572206973206e6f7420746865206f776e657260448201526064016102e7565b6105de6000611165565b565b6065546001600160a01b0316331461063a5760405162461bcd60e51b815260206004820181905260248201527f4f776e61626c653a2063616c6c6572206973206e6f7420746865206f776e657260448201526064016102e7565b609c8190556040518181527fed8edd16012d23ad0de39ad8ba59aede4aba5e1556e2617613b2dad925365d7690602001610480565b600260015414156106c25760405162461bcd60e51b815260206004820152601f60248201527f5265656e7472616e637947756172643a207265656e7472616e742063616c6c0060448201526064016102e7565b6002600155806107145760405162461bcd60e51b815260206004820152601260248201527f43616e6e6f74206d696e742030204c696e6f000000000000000000000000000060448201526064016102e7565b60995460009061072683612710611679565b6107309190611659565b61073a9083611698565b9050600060995483662386f26fc100006107549190611679565b61075e9190611659565b905069d3c21bcecceda1000000609860009054906101000a90046001600160a01b03166001600160a01b03166318160ddd6040518163ffffffff1660e01b815260040160206040518083038186803b1580156107b957600080fd5b505afa1580156107cd573d6000803e3d6000fd5b505050506040513d601f19601f820116820180604052508101906107f191906115da565b1115610934576000610805610e1042611659565b9050612710609c54609860009054906101000a90046001600160a01b03166001600160a01b03166318160ddd6040518163ffffffff1660e01b815260040160206040518083038186803b15801561085b57600080fd5b505afa15801561086f573d6000803e3d6000fd5b505050506040513d601f19601f8201168201806040525081019061089391906115da565b61089d9190611679565b6108a79190611659565b6000828152609d60205260409020546108c1908490611641565b111561090f5760405162461bcd60e51b815260206004820152601e60248201527f546f6f206d756368204c494e4f206d696e746564207468697320686f7572000060448201526064016102e7565b6000818152609d60205260408120805484929061092d908490611641565b9091555050505b60975461094c906001600160a01b03163330866111c4565b609b54609754610969916001600160a01b0391821691168461127b565b6098546040517f40c10f19000000000000000000000000000000000000000000000000000000008152336004820152602481018390526001600160a01b03909116906340c10f1990604401600060405180830381600087803b1580156109ce57600080fd5b505af11580156109e2573d6000803e3d6000fd5b505060408051338152602081018590529081018590527f4c209b5fc8ad50758f13e2e1088ba56a560dff690a1c6fef26394f4c03821c4f925060600190505b60405180910390a150506001805550565b6065546001600160a01b03163314610a8c5760405162461bcd60e51b815260206004820181905260248201527f4f776e61626c653a2063616c6c6572206973206e6f7420746865206f776e657260448201526064016102e7565b6001600160a01b038116610ae25760405162461bcd60e51b815260206004820181905260248201527f54726561737572792063616e206e6f74206265207a65726f206164647265737360448201526064016102e7565b609b805473ffffffffffffffffffffffffffffffffffffffff19166001600160a01b0383169081179091556040519081527f307e35806d2460623a3d217b5f70b195611f99aba68ed9df4ed39cf88ce2303f90602001610480565b60026001541415610b905760405162461bcd60e51b815260206004820152601f60248201527f5265656e7472616e637947756172643a207265656e7472616e742063616c6c0060448201526064016102e7565b600260015580610be25760405162461bcd60e51b815260206004820152601460248201527f43616e6e6f742072656465656d2030205553444300000000000000000000000060448201526064016102e7565b6097546040516370a0823160e01b81523060048201526001600160a01b03909116906370a082319060240160206040518083038186803b158015610c2557600080fd5b505afa158015610c39573d6000803e3d6000fd5b505050506040513d601f19601f82011682018060405250810190610c5d91906115da565b610ca95760405162461bcd60e51b815260206004820152601b60248201527f4e6f7420656e6f756768205553444320696e207265736572766573000000000060448201526064016102e7565b610cb864e8d4a5100082611659565b6097546040516370a0823160e01b81523060048201526001600160a01b03909116906370a082319060240160206040518083038186803b158015610cfb57600080fd5b505afa158015610d0f573d6000803e3d6000fd5b505050506040513d601f19601f82011682018060405250810190610d3391906115da565b1015610d815760405162461bcd60e51b815260206004820152601b60248201527f4e6f7420656e6f756768205553444320696e207265736572766573000000000060448201526064016102e7565b6000662386f26fc10000609a5483610d999190611679565b610da39190611659565b9050600081610db764e8d4a5100085611659565b610dc19190611698565b6098546040517f9dc29fac000000000000000000000000000000000000000000000000000000008152336004820152602481018690529192506001600160a01b031690639dc29fac90604401600060405180830381600087803b158015610e2757600080fd5b505af1158015610e3b573d6000803e3d6000fd5b5050609754610e5792506001600160a01b03169050338461127b565b609b54609754610e74916001600160a01b0391821691168361127b565b60408051338152602081018490529081018290527fe5b754fb1abb7f01b499791d0b820ae3b6af3424ac1c59768edb53f4ec31a92990606001610a21565b6097546040516370a0823160e01b81523060048201526000916001600160a01b0316906370a082319060240160206040518083038186803b158015610ef657600080fd5b505afa158015610f0a573d6000803e3d6000fd5b505050506040513d601f19601f82011682018060405250810190610f2e91906115da565b905090565b6065546001600160a01b03163314610f8d5760405162461bcd60e51b815260206004820181905260248201527f4f776e61626c653a2063616c6c6572206973206e6f7420746865206f776e657260448201526064016102e7565b6001600160a01b0381166110095760405162461bcd60e51b815260206004820152602660248201527f4f776e61626c653a206e6577206f776e657220697320746865207a65726f206160448201527f646472657373000000000000000000000000000000000000000000000000000060648201526084016102e7565b61101281611165565b50565b600054610100900460ff166105de5760405162461bcd60e51b815260206004820152602b60248201527f496e697469616c697a61626c653a20636f6e7472616374206973206e6f74206960448201526a6e697469616c697a696e6760a81b60648201526084016102e7565b600054610100900460ff166110eb5760405162461bcd60e51b815260206004820152602b60248201527f496e697469616c697a61626c653a20636f6e7472616374206973206e6f74206960448201526a6e697469616c697a696e6760a81b60648201526084016102e7565b6105de33611165565b600054610100900460ff1661115f5760405162461bcd60e51b815260206004820152602b60248201527f496e697469616c697a61626c653a20636f6e7472616374206973206e6f74206960448201526a6e697469616c697a696e6760a81b60648201526084016102e7565b60018055565b606580546001600160a01b0383811673ffffffffffffffffffffffffffffffffffffffff19831681179093556040519116919082907f8be0079c531659141344cd1fd0a4f28419497f9722a3daafe3b4186f6b6457e090600090a35050565b6040516001600160a01b03808516602483015283166044820152606481018290526112759085907f23b872dd00000000000000000000000000000000000000000000000000000000906084015b60408051601f198184030181529190526020810180517bffffffffffffffffffffffffffffffffffffffffffffffffffffffff167fffffffff00000000000000000000000000000000000000000000000000000000909316929092179091526112c4565b50505050565b6040516001600160a01b0383166024820152604481018290526103909084907fa9059cbb0000000000000000000000000000000000000000000000000000000090606401611211565b6000611319826040518060400160405280602081526020017f5361666545524332303a206c6f772d6c6576656c2063616c6c206661696c6564815250856001600160a01b03166113a99092919063ffffffff16565b805190915015610390578080602001905181019061133791906115a2565b6103905760405162461bcd60e51b815260206004820152602a60248201527f5361666545524332303a204552433230206f7065726174696f6e20646964206e60448201527f6f7420737563636565640000000000000000000000000000000000000000000060648201526084016102e7565b60606113b884846000856113c2565b90505b9392505050565b60608247101561143a5760405162461bcd60e51b815260206004820152602660248201527f416464726573733a20696e73756666696369656e742062616c616e636520666f60448201527f722063616c6c000000000000000000000000000000000000000000000000000060648201526084016102e7565b843b6114885760405162461bcd60e51b815260206004820152601d60248201527f416464726573733a2063616c6c20746f206e6f6e2d636f6e747261637400000060448201526064016102e7565b600080866001600160a01b031685876040516114a491906115f2565b60006040518083038185875af1925050503d80600081146114e1576040519150601f19603f3d011682016040523d82523d6000602084013e6114e6565b606091505b50915091506114f6828286611501565b979650505050505050565b606083156115105750816113bb565b8251156115205782518084602001fd5b8160405162461bcd60e51b81526004016102e7919061160e565b80356001600160a01b038116811461155157600080fd5b919050565b600060208284031215611567578081fd5b6113bb8261153a565b60008060408385031215611582578081fd5b61158b8361153a565b91506115996020840161153a565b90509250929050565b6000602082840312156115b3578081fd5b815180151581146113bb578182fd5b6000602082840312156115d3578081fd5b5035919050565b6000602082840312156115eb578081fd5b5051919050565b600082516116048184602087016116af565b9190910192915050565b602081526000825180602084015261162d8160408501602087016116af565b601f01601f19169190910160400192915050565b60008219821115611654576116546116db565b500190565b60008261167457634e487b7160e01b81526012600452602481fd5b500490565b6000816000190483118215151615611693576116936116db565b500290565b6000828210156116aa576116aa6116db565b500390565b60005b838110156116ca5781810151838201526020016116b2565b838111156112755750506000910152565b634e487b7160e01b600052601160045260246000fdfea2646970667358221220aa5ac950abf7c6181592b4ad74dea95f9eef25475536c405bdfac36e19c9cf7d64736f6c63430008040033",
  "linkReferences": {},
  "deployedLinkReferences": {}
}