{
  "_format": "hh-sol-artifact-1",
  "contractName": "CKBVault",
  "sourceName": "contracts/CKBVault.sol",
  "abi": [
    {
      "anonymous": false,
      "inputs": [
        {
          "indexed": true,
          "internalType": "address",
          "name": "owner",
          "type": "address"
        },
        {
          "indexed": true,
          "internalType": "address",
          "name": "approved",
          "type": "address"
        },
        {
          "indexed": true,
          "internalType": "uint256",
          "name": "tokenId",
          "type": "uint256"
        }
      ],
      "name": "Approval",
      "type": "event"
    },
    {
      "anonymous": false,
      "inputs": [
        {
          "indexed": true,
          "internalType": "address",
          "name": "owner",
          "type": "address"
        },
        {
          "indexed": true,
          "internalType": "address",
          "name": "operator",
          "type": "address"
        },
        {
          "indexed": false,
          "internalType": "bool",
          "name": "approved",
          "type": "bool"
        }
      ],
      "name": "ApprovalForAll",
      "type": "event"
    },
    {
      "anonymous": false,
      "inputs": [
        {
          "indexed": false,
          "internalType": "bool",
          "name": "mintingPaused",
          "type": "bool"
        }
      ],
      "name": "BankPaused",
      "type": "event"
    },
    {
      "anonymous": false,
      "inputs": [
        {
          "indexed": false,
          "internalType": "uint256",
          "name": "safeID",
          "type": "uint256"
        },
        {
          "indexed": false,
          "internalType": "uint256",
          "name": "amount",
          "type": "uint256"
        }
      ],
      "name": "BorrowToken",
      "type": "event"
    },
    {
      "anonymous": false,
      "inputs": [
        {
          "indexed": false,
          "internalType": "uint256",
          "name": "newDebtRatio",
          "type": "uint256"
        }
      ],
      "name": "ChangeDebtRatio",
      "type": "event"
    },
    {
      "anonymous": false,
      "inputs": [
        {
          "indexed": false,
          "internalType": "uint256",
          "name": "newGainRatio",
          "type": "uint256"
        }
      ],
      "name": "ChangeGainRatio",
      "type": "event"
    },
    {
      "anonymous": false,
      "inputs": [
        {
          "indexed": false,
          "internalType": "uint256",
          "name": "safeID",
          "type": "uint256"
        },
        {
          "indexed": false,
          "internalType": "address",
          "name": "creator",
          "type": "address"
        }
      ],
      "name": "CreateSafe",
      "type": "event"
    },
    {
      "anonymous": false,
      "inputs": [
        {
          "indexed": false,
          "internalType": "uint256",
          "name": "safeID",
          "type": "uint256"
        },
        {
          "indexed": false,
          "internalType": "uint256",
          "name": "amount",
          "type": "uint256"
        }
      ],
      "name": "DepositCKB",
      "type": "event"
    },
    {
      "anonymous": false,
      "inputs": [
        {
          "indexed": false,
          "internalType": "uint256",
          "name": "safeID",
          "type": "uint256"
        },
        {
          "indexed": false,
          "internalType": "uint256",
          "name": "amount",
          "type": "uint256"
        }
      ],
      "name": "DepositCollateral",
      "type": "event"
    },
    {
      "anonymous": false,
      "inputs": [
        {
          "indexed": false,
          "internalType": "uint256",
          "name": "safeID",
          "type": "uint256"
        }
      ],
      "name": "DestroySafe",
      "type": "event"
    },
    {
      "anonymous": false,
      "inputs": [
        {
          "indexed": false,
          "internalType": "uint256",
          "name": "amount",
          "type": "uint256"
        },
        {
          "indexed": false,
          "internalType": "address",
          "name": "user",
          "type": "address"
        }
      ],
      "name": "GetPaid",
      "type": "event"
    },
    {
      "anonymous": false,
      "inputs": [
        {
          "indexed": false,
          "internalType": "uint256",
          "name": "safeID",
          "type": "uint256"
        },
        {
          "indexed": false,
          "internalType": "address",
          "name": "owner",
          "type": "address"
        },
        {
          "indexed": false,
          "internalType": "address",
          "name": "buyer",
          "type": "address"
        },
        {
          "indexed": false,
          "internalType": "uint256",
          "name": "amountPaid",
          "type": "uint256"
        },
        {
          "indexed": false,
          "internalType": "uint256",
          "name": "tokenExtract",
          "type": "uint256"
        },
        {
          "indexed": false,
          "internalType": "uint256",
          "name": "closingFee",
          "type": "uint256"
        }
      ],
      "name": "LiquidateSafe",
      "type": "event"
    },
    {
      "anonymous": false,
      "inputs": [
        {
          "indexed": false,
          "internalType": "uint256",
          "name": "newClosingFee",
          "type": "uint256"
        }
      ],
      "name": "NewClosingFee",
      "type": "event"
    },
    {
      "anonymous": false,
      "inputs": [
        {
          "indexed": false,
          "internalType": "uint256",
          "name": "newDebtCeiling",
          "type": "uint256"
        }
      ],
      "name": "NewDebtCeiling",
      "type": "event"
    },
    {
      "anonymous": false,
      "inputs": [
        {
          "indexed": false,
          "internalType": "uint256",
          "name": "newMinimumCollateralPercentage",
          "type": "uint256"
        }
      ],
      "name": "NewMinimumCollateralPercentage",
      "type": "event"
    },
    {
      "anonymous": false,
      "inputs": [
        {
          "indexed": false,
          "internalType": "uint256",
          "name": "newMinimumDebt",
          "type": "uint256"
        }
      ],
      "name": "NewMinimumDebt",
      "type": "event"
    },
    {
      "anonymous": false,
      "inputs": [
        {
          "indexed": false,
          "internalType": "uint256",
          "name": "newOpeningFee",
          "type": "uint256"
        }
      ],
      "name": "NewOpeningFee",
      "type": "event"
    },
    {
      "anonymous": false,
      "inputs": [
        {
          "indexed": false,
          "internalType": "uint256",
          "name": "newPeg",
          "type": "uint256"
        }
      ],
      "name": "NewPeg",
      "type": "event"
    },
    {
      "anonymous": false,
      "inputs": [
        {
          "indexed": false,
          "internalType": "address",
          "name": "newPrice",
          "type": "address"
        }
      ],
      "name": "NewPrice",
      "type": "event"
    },
    {
      "anonymous": false,
      "inputs": [
        {
          "indexed": false,
          "internalType": "uint256",
          "name": "newTreasury",
          "type": "uint256"
        }
      ],
      "name": "NewTreasury",
      "type": "event"
    },
    {
      "anonymous": false,
      "inputs": [
        {
          "indexed": false,
          "internalType": "uint256",
          "name": "safeID",
          "type": "uint256"
        },
        {
          "indexed": false,
          "internalType": "uint256",
          "name": "amount",
          "type": "uint256"
        },
        {
          "indexed": false,
          "internalType": "uint256",
          "name": "closingFee",
          "type": "uint256"
        }
      ],
      "name": "PaybackToken",
      "type": "event"
    },
    {
      "anonymous": false,
      "inputs": [
        {
          "indexed": true,
          "internalType": "bytes32",
          "name": "role",
          "type": "bytes32"
        },
        {
          "indexed": true,
          "internalType": "bytes32",
          "name": "previousAdminRole",
          "type": "bytes32"
        },
        {
          "indexed": true,
          "internalType": "bytes32",
          "name": "newAdminRole",
          "type": "bytes32"
        }
      ],
      "name": "RoleAdminChanged",
      "type": "event"
    },
    {
      "anonymous": false,
      "inputs": [
        {
          "indexed": true,
          "internalType": "bytes32",
          "name": "role",
          "type": "bytes32"
        },
        {
          "indexed": true,
          "internalType": "address",
          "name": "account",
          "type": "address"
        },
        {
          "indexed": true,
          "internalType": "address",
          "name": "sender",
          "type": "address"
        }
      ],
      "name": "RoleGranted",
      "type": "event"
    },
    {
      "anonymous": false,
      "inputs": [
        {
          "indexed": true,
          "internalType": "bytes32",
          "name": "role",
          "type": "bytes32"
        },
        {
          "indexed": true,
          "internalType": "address",
          "name": "account",
          "type": "address"
        },
        {
          "indexed": true,
          "internalType": "address",
          "name": "sender",
          "type": "address"
        }
      ],
      "name": "RoleRevoked",
      "type": "event"
    },
    {
      "anonymous": false,
      "inputs": [
        {
          "indexed": true,
          "internalType": "address",
          "name": "from",
          "type": "address"
        },
        {
          "indexed": true,
          "internalType": "address",
          "name": "to",
          "type": "address"
        },
        {
          "indexed": true,
          "internalType": "uint256",
          "name": "tokenId",
          "type": "uint256"
        }
      ],
      "name": "Transfer",
      "type": "event"
    },
    {
      "anonymous": false,
      "inputs": [
        {
          "indexed": false,
          "internalType": "uint256",
          "name": "safeID",
          "type": "uint256"
        },
        {
          "indexed": false,
          "internalType": "address",
          "name": "from",
          "type": "address"
        },
        {
          "indexed": false,
          "internalType": "address",
          "name": "to",
          "type": "address"
        }
      ],
      "name": "TransferSafe",
      "type": "event"
    },
    {
      "anonymous": false,
      "inputs": [
        {
          "indexed": false,
          "internalType": "uint256",
          "name": "safeID",
          "type": "uint256"
        },
        {
          "indexed": false,
          "internalType": "uint256",
          "name": "amount",
          "type": "uint256"
        }
      ],
      "name": "WithdrawCollateral",
      "type": "event"
    },
    {
      "inputs": [],
      "name": "DEFAULT_ADMIN_ROLE",
      "outputs": [
        {
          "internalType": "bytes32",
          "name": "",
          "type": "bytes32"
        }
      ],
      "stateMutability": "view",
      "type": "function"
    },
    {
      "inputs": [],
      "name": "TREASURY_ROLE",
      "outputs": [
        {
          "internalType": "bytes32",
          "name": "",
          "type": "bytes32"
        }
      ],
      "stateMutability": "view",
      "type": "function"
    },
    {
      "inputs": [
        {
          "internalType": "address",
          "name": "to",
          "type": "address"
        },
        {
          "internalType": "uint256",
          "name": "tokenId",
          "type": "uint256"
        }
      ],
      "name": "approve",
      "outputs": [],
      "stateMutability": "nonpayable",
      "type": "function"
    },
    {
      "inputs": [
        {
          "internalType": "address",
          "name": "owner",
          "type": "address"
        }
      ],
      "name": "balanceOf",
      "outputs": [
        {
          "internalType": "uint256",
          "name": "",
          "type": "uint256"
        }
      ],
      "stateMutability": "view",
      "type": "function"
    },
    {
      "inputs": [
        {
          "internalType": "uint256",
          "name": "safeID",
          "type": "uint256"
        },
        {
          "internalType": "uint256",
          "name": "amount",
          "type": "uint256"
        }
      ],
      "name": "borrowToken",
      "outputs": [],
      "stateMutability": "payable",
      "type": "function"
    },
    {
      "inputs": [
        {
          "internalType": "address",
          "name": "",
          "type": "address"
        }
      ],
      "name": "ckb_ratio",
      "outputs": [
        {
          "internalType": "uint256",
          "name": "",
          "type": "uint256"
        }
      ],
      "stateMutability": "view",
      "type": "function"
    },
    {
      "inputs": [],
      "name": "closingFee",
      "outputs": [
        {
          "internalType": "uint256",
          "name": "",
          "type": "uint256"
        }
      ],
      "stateMutability": "view",
      "type": "function"
    },
    {
      "inputs": [],
      "name": "createSafe",
      "outputs": [],
      "stateMutability": "nonpayable",
      "type": "function"
    },
    {
      "inputs": [],
      "name": "debtCeiling",
      "outputs": [
        {
          "internalType": "uint256",
          "name": "",
          "type": "uint256"
        }
      ],
      "stateMutability": "view",
      "type": "function"
    },
    {
      "inputs": [],
      "name": "debtRatio",
      "outputs": [
        {
          "internalType": "uint256",
          "name": "",
          "type": "uint256"
        }
      ],
      "stateMutability": "view",
      "type": "function"
    },
    {
      "inputs": [
        {
          "internalType": "address",
          "name": "",
          "type": "address"
        }
      ],
      "name": "depositAmount",
      "outputs": [
        {
          "internalType": "uint256",
          "name": "",
          "type": "uint256"
        }
      ],
      "stateMutability": "view",
      "type": "function"
    },
    {
      "inputs": [
        {
          "internalType": "uint256",
          "name": "safeID",
          "type": "uint256"
        }
      ],
      "name": "depositCKB",
      "outputs": [],
      "stateMutability": "payable",
      "type": "function"
    },
    {
      "inputs": [
        {
          "internalType": "uint256",
          "name": "safeID",
          "type": "uint256"
        },
        {
          "internalType": "uint256",
          "name": "amount",
          "type": "uint256"
        }
      ],
      "name": "depositCollateral",
      "outputs": [],
      "stateMutability": "nonpayable",
      "type": "function"
    },
    {
      "inputs": [
        {
          "internalType": "uint256",
          "name": "safeID",
          "type": "uint256"
        }
      ],
      "name": "destorySafe",
      "outputs": [],
      "stateMutability": "nonpayable",
      "type": "function"
    },
    {
      "inputs": [],
      "name": "gainRatio",
      "outputs": [
        {
          "internalType": "uint256",
          "name": "",
          "type": "uint256"
        }
      ],
      "stateMutability": "view",
      "type": "function"
    },
    {
      "inputs": [
        {
          "internalType": "uint256",
          "name": "tokenId",
          "type": "uint256"
        }
      ],
      "name": "getApproved",
      "outputs": [
        {
          "internalType": "address",
          "name": "",
          "type": "address"
        }
      ],
      "stateMutability": "view",
      "type": "function"
    },
    {
      "inputs": [
        {
          "internalType": "string",
          "name": "base",
          "type": "string"
        },
        {
          "internalType": "string",
          "name": "quote",
          "type": "string"
        }
      ],
      "name": "getPrice",
      "outputs": [
        {
          "internalType": "uint256",
          "name": "",
          "type": "uint256"
        }
      ],
      "stateMutability": "view",
      "type": "function"
    },
    {
      "inputs": [],
      "name": "getPricePeg",
      "outputs": [
        {
          "internalType": "uint256",
          "name": "",
          "type": "uint256"
        }
      ],
      "stateMutability": "view",
      "type": "function"
    },
    {
      "inputs": [
        {
          "internalType": "bytes32",
          "name": "role",
          "type": "bytes32"
        }
      ],
      "name": "getRoleAdmin",
      "outputs": [
        {
          "internalType": "bytes32",
          "name": "",
          "type": "bytes32"
        }
      ],
      "stateMutability": "view",
      "type": "function"
    },
    {
      "inputs": [
        {
          "internalType": "bytes32",
          "name": "role",
          "type": "bytes32"
        },
        {
          "internalType": "address",
          "name": "account",
          "type": "address"
        }
      ],
      "name": "grantRole",
      "outputs": [],
      "stateMutability": "nonpayable",
      "type": "function"
    },
    {
      "inputs": [
        {
          "internalType": "bytes32",
          "name": "role",
          "type": "bytes32"
        },
        {
          "internalType": "address",
          "name": "account",
          "type": "address"
        }
      ],
      "name": "hasRole",
      "outputs": [
        {
          "internalType": "bool",
          "name": "",
          "type": "bool"
        }
      ],
      "stateMutability": "view",
      "type": "function"
    },
    {
      "inputs": [
        {
          "internalType": "uint256",
          "name": "minimumCollateralPercentage_",
          "type": "uint256"
        },
        {
          "internalType": "contract IStdReference",
          "name": "ref_",
          "type": "address"
        },
        {
          "internalType": "string",
          "name": "name_",
          "type": "string"
        },
        {
          "internalType": "string",
          "name": "symbol_",
          "type": "string"
        },
        {
          "internalType": "address",
          "name": "token_",
          "type": "address"
        }
      ],
      "name": "initialize",
      "outputs": [],
      "stateMutability": "nonpayable",
      "type": "function"
    },
    {
      "inputs": [
        {
          "internalType": "address",
          "name": "owner",
          "type": "address"
        },
        {
          "internalType": "address",
          "name": "operator",
          "type": "address"
        }
      ],
      "name": "isApprovedForAll",
      "outputs": [
        {
          "internalType": "bool",
          "name": "",
          "type": "bool"
        }
      ],
      "stateMutability": "view",
      "type": "function"
    },
    {
      "inputs": [],
      "name": "minimumCollateralPercentage",
      "outputs": [
        {
          "internalType": "uint256",
          "name": "",
          "type": "uint256"
        }
      ],
      "stateMutability": "view",
      "type": "function"
    },
    {
      "inputs": [],
      "name": "minimumDebt",
      "outputs": [
        {
          "internalType": "uint256",
          "name": "",
          "type": "uint256"
        }
      ],
      "stateMutability": "view",
      "type": "function"
    },
    {
      "inputs": [],
      "name": "mintingPaused",
      "outputs": [
        {
          "internalType": "bool",
          "name": "",
          "type": "bool"
        }
      ],
      "stateMutability": "view",
      "type": "function"
    },
    {
      "inputs": [],
      "name": "name",
      "outputs": [
        {
          "internalType": "string",
          "name": "",
          "type": "string"
        }
      ],
      "stateMutability": "view",
      "type": "function"
    },
    {
      "inputs": [],
      "name": "openingFee",
      "outputs": [
        {
          "internalType": "uint256",
          "name": "",
          "type": "uint256"
        }
      ],
      "stateMutability": "view",
      "type": "function"
    },
    {
      "inputs": [
        {
          "internalType": "uint256",
          "name": "tokenId",
          "type": "uint256"
        }
      ],
      "name": "ownerOf",
      "outputs": [
        {
          "internalType": "address",
          "name": "",
          "type": "address"
        }
      ],
      "stateMutability": "view",
      "type": "function"
    },
    {
      "inputs": [
        {
          "internalType": "uint256",
          "name": "safeID",
          "type": "uint256"
        },
        {
          "internalType": "uint256",
          "name": "amount",
          "type": "uint256"
        }
      ],
      "name": "paybackToken",
      "outputs": [],
      "stateMutability": "nonpayable",
      "type": "function"
    },
    {
      "inputs": [],
      "name": "ref",
      "outputs": [
        {
          "internalType": "contract IStdReference",
          "name": "",
          "type": "address"
        }
      ],
      "stateMutability": "view",
      "type": "function"
    },
    {
      "inputs": [
        {
          "internalType": "bytes32",
          "name": "role",
          "type": "bytes32"
        },
        {
          "internalType": "address",
          "name": "account",
          "type": "address"
        }
      ],
      "name": "renounceRole",
      "outputs": [],
      "stateMutability": "nonpayable",
      "type": "function"
    },
    {
      "inputs": [
        {
          "internalType": "bytes32",
          "name": "role",
          "type": "bytes32"
        },
        {
          "internalType": "address",
          "name": "account",
          "type": "address"
        }
      ],
      "name": "revokeRole",
      "outputs": [],
      "stateMutability": "nonpayable",
      "type": "function"
    },
    {
      "inputs": [
        {
          "internalType": "uint256",
          "name": "",
          "type": "uint256"
        }
      ],
      "name": "safeCollateral",
      "outputs": [
        {
          "internalType": "uint256",
          "name": "",
          "type": "uint256"
        }
      ],
      "stateMutability": "view",
      "type": "function"
    },
    {
      "inputs": [],
      "name": "safeCounts",
      "outputs": [
        {
          "internalType": "uint256",
          "name": "",
          "type": "uint256"
        }
      ],
      "stateMutability": "view",
      "type": "function"
    },
    {
      "inputs": [
        {
          "internalType": "uint256",
          "name": "",
          "type": "uint256"
        }
      ],
      "name": "safeDebt",
      "outputs": [
        {
          "internalType": "uint256",
          "name": "",
          "type": "uint256"
        }
      ],
      "stateMutability": "view",
      "type": "function"
    },
    {
      "inputs": [
        {
          "internalType": "uint256",
          "name": "safeID",
          "type": "uint256"
        }
      ],
      "name": "safeExists",
      "outputs": [
        {
          "internalType": "bool",
          "name": "",
          "type": "bool"
        }
      ],
      "stateMutability": "view",
      "type": "function"
    },
    {
      "inputs": [
        {
          "internalType": "address",
          "name": "from",
          "type": "address"
        },
        {
          "internalType": "address",
          "name": "to",
          "type": "address"
        },
        {
          "internalType": "uint256",
          "name": "tokenId",
          "type": "uint256"
        }
      ],
      "name": "safeTransferFrom",
      "outputs": [],
      "stateMutability": "nonpayable",
      "type": "function"
    },
    {
      "inputs": [
        {
          "internalType": "address",
          "name": "from",
          "type": "address"
        },
        {
          "internalType": "address",
          "name": "to",
          "type": "address"
        },
        {
          "internalType": "uint256",
          "name": "tokenId",
          "type": "uint256"
        },
        {
          "internalType": "bytes",
          "name": "_data",
          "type": "bytes"
        }
      ],
      "name": "safeTransferFrom",
      "outputs": [],
      "stateMutability": "nonpayable",
      "type": "function"
    },
    {
      "inputs": [
        {
          "internalType": "address",
          "name": "operator",
          "type": "address"
        },
        {
          "internalType": "bool",
          "name": "approved",
          "type": "bool"
        }
      ],
      "name": "setApprovalForAll",
      "outputs": [],
      "stateMutability": "nonpayable",
      "type": "function"
    },
    {
      "inputs": [
        {
          "internalType": "uint256",
          "name": "amount",
          "type": "uint256"
        }
      ],
      "name": "setClosingFee",
      "outputs": [],
      "stateMutability": "nonpayable",
      "type": "function"
    },
    {
      "inputs": [
        {
          "internalType": "uint256",
          "name": "debtCeiling_",
          "type": "uint256"
        }
      ],
      "name": "setDebtCeiling",
      "outputs": [],
      "stateMutability": "nonpayable",
      "type": "function"
    },
    {
      "inputs": [
        {
          "internalType": "uint256",
          "name": "mcp_",
          "type": "uint256"
        }
      ],
      "name": "setMinimumCollateralPercentage",
      "outputs": [],
      "stateMutability": "nonpayable",
      "type": "function"
    },
    {
      "inputs": [
        {
          "internalType": "uint256",
          "name": "minimumDebt_",
          "type": "uint256"
        }
      ],
      "name": "setMinimumDebt",
      "outputs": [],
      "stateMutability": "nonpayable",
      "type": "function"
    },
    {
      "inputs": [
        {
          "internalType": "bool",
          "name": "paused_",
          "type": "bool"
        }
      ],
      "name": "setMintingPaused",
      "outputs": [],
      "stateMutability": "nonpayable",
      "type": "function"
    },
    {
      "inputs": [
        {
          "internalType": "uint256",
          "name": "amount",
          "type": "uint256"
        }
      ],
      "name": "setOpeningFee",
      "outputs": [],
      "stateMutability": "nonpayable",
      "type": "function"
    },
    {
      "inputs": [
        {
          "internalType": "contract IStdReference",
          "name": "ref_",
          "type": "address"
        }
      ],
      "name": "setPrice",
      "outputs": [],
      "stateMutability": "nonpayable",
      "type": "function"
    },
    {
      "inputs": [
        {
          "internalType": "uint256",
          "name": "tokenPeg_",
          "type": "uint256"
        }
      ],
      "name": "setTokenPeg",
      "outputs": [],
      "stateMutability": "nonpayable",
      "type": "function"
    },
    {
      "inputs": [
        {
          "internalType": "uint256",
          "name": "treasury_",
          "type": "uint256"
        }
      ],
      "name": "setTreasury",
      "outputs": [],
      "stateMutability": "nonpayable",
      "type": "function"
    },
    {
      "inputs": [
        {
          "internalType": "address",
          "name": "",
          "type": "address"
        }
      ],
      "name": "stableCoinAmount",
      "outputs": [
        {
          "internalType": "uint256",
          "name": "",
          "type": "uint256"
        }
      ],
      "stateMutability": "view",
      "type": "function"
    },
    {
      "inputs": [
        {
          "internalType": "address",
          "name": "",
          "type": "address"
        }
      ],
      "name": "stableCoinDebt",
      "outputs": [
        {
          "internalType": "uint256",
          "name": "",
          "type": "uint256"
        }
      ],
      "stateMutability": "view",
      "type": "function"
    },
    {
      "inputs": [
        {
          "internalType": "bytes4",
          "name": "interfaceId",
          "type": "bytes4"
        }
      ],
      "name": "supportsInterface",
      "outputs": [
        {
          "internalType": "bool",
          "name": "",
          "type": "bool"
        }
      ],
      "stateMutability": "view",
      "type": "function"
    },
    {
      "inputs": [],
      "name": "symbol",
      "outputs": [
        {
          "internalType": "string",
          "name": "",
          "type": "string"
        }
      ],
      "stateMutability": "view",
      "type": "function"
    },
    {
      "inputs": [],
      "name": "token",
      "outputs": [
        {
          "internalType": "contract IERC20Metadata",
          "name": "",
          "type": "address"
        }
      ],
      "stateMutability": "view",
      "type": "function"
    },
    {
      "inputs": [
        {
          "internalType": "uint256",
          "name": "index",
          "type": "uint256"
        }
      ],
      "name": "tokenByIndex",
      "outputs": [
        {
          "internalType": "uint256",
          "name": "",
          "type": "uint256"
        }
      ],
      "stateMutability": "view",
      "type": "function"
    },
    {
      "inputs": [
        {
          "internalType": "address",
          "name": "",
          "type": "address"
        }
      ],
      "name": "tokenDebt",
      "outputs": [
        {
          "internalType": "uint256",
          "name": "",
          "type": "uint256"
        }
      ],
      "stateMutability": "view",
      "type": "function"
    },
    {
      "inputs": [
        {
          "internalType": "address",
          "name": "owner",
          "type": "address"
        },
        {
          "internalType": "uint256",
          "name": "index",
          "type": "uint256"
        }
      ],
      "name": "tokenOfOwnerByIndex",
      "outputs": [
        {
          "internalType": "uint256",
          "name": "",
          "type": "uint256"
        }
      ],
      "stateMutability": "view",
      "type": "function"
    },
    {
      "inputs": [],
      "name": "tokenPeg",
      "outputs": [
        {
          "internalType": "uint256",
          "name": "",
          "type": "uint256"
        }
      ],
      "stateMutability": "view",
      "type": "function"
    },
    {
      "inputs": [
        {
          "internalType": "uint256",
          "name": "tokenId",
          "type": "uint256"
        }
      ],
      "name": "tokenURI",
      "outputs": [
        {
          "internalType": "string",
          "name": "",
          "type": "string"
        }
      ],
      "stateMutability": "view",
      "type": "function"
    },
    {
      "inputs": [],
      "name": "totalDebt",
      "outputs": [
        {
          "internalType": "uint256",
          "name": "",
          "type": "uint256"
        }
      ],
      "stateMutability": "view",
      "type": "function"
    },
    {
      "inputs": [],
      "name": "totalDeposits",
      "outputs": [
        {
          "internalType": "uint256",
          "name": "",
          "type": "uint256"
        }
      ],
      "stateMutability": "view",
      "type": "function"
    },
    {
      "inputs": [],
      "name": "totalSupply",
      "outputs": [
        {
          "internalType": "uint256",
          "name": "",
          "type": "uint256"
        }
      ],
      "stateMutability": "view",
      "type": "function"
    },
    {
      "inputs": [
        {
          "internalType": "address",
          "name": "from",
          "type": "address"
        },
        {
          "internalType": "address",
          "name": "to",
          "type": "address"
        },
        {
          "internalType": "uint256",
          "name": "tokenId",
          "type": "uint256"
        }
      ],
      "name": "transferFrom",
      "outputs": [],
      "stateMutability": "nonpayable",
      "type": "function"
    },
    {
      "inputs": [
        {
          "internalType": "uint256",
          "name": "safeID",
          "type": "uint256"
        },
        {
          "internalType": "address",
          "name": "to",
          "type": "address"
        }
      ],
      "name": "transferSafe",
      "outputs": [],
      "stateMutability": "nonpayable",
      "type": "function"
    },
    {
      "inputs": [],
      "name": "treasury",
      "outputs": [
        {
          "internalType": "uint256",
          "name": "",
          "type": "uint256"
        }
      ],
      "stateMutability": "view",
      "type": "function"
    },
    {
      "inputs": [
        {
          "internalType": "uint256",
          "name": "safeID",
          "type": "uint256"
        },
        {
          "internalType": "uint256",
          "name": "amount",
          "type": "uint256"
        }
      ],
      "name": "withdrawCollateral",
      "outputs": [],
      "stateMutability": "nonpayable",
      "type": "function"
    }
  ],
  "bytecode": "0x608060405234801561001057600080fd5b506150ca806100206000396000f3fe6080604052600436106103f95760003560e01c80636352211e1161020d578063ad13419d11610128578063d547741f116100bb578063e2b5f3231161008a578063ece137321161006f578063ece1373214610c38578063fc0c546a14610c58578063fc7b9c1814610c7957600080fd5b8063e2b5f32314610bdc578063e985e9c514610bef57600080fd5b8063d547741f14610b6a578063d821c24914610b8a578063e1a283d614610baa578063e1c84ea414610bc557600080fd5b8063c91ee83d116100f7578063c91ee83d14610b03578063cdfedd6314610b1a578063cea55f5714610b31578063d11a57ec14610b4857600080fd5b8063ad13419d14610a83578063b1511cc914610aa3578063b88d4fde14610ac3578063c87b56dd14610ae357600080fd5b806381f635a7116101a05780639fc30f1c1161016f5780639fc30f1c14610a23578063a217fddf14610a39578063a22cb46514610a4e578063a55c599314610a6e57600080fd5b806381f635a71461097757806386375994146109a857806391d14854146109c857806395d89b4114610a0e57600080fd5b8063728bbbb5116101dc578063728bbbb5146108fb5780637558abc814610912578063767a7b05146109405780637d8820971461096057600080fd5b80636352211e1461087b5780636d2f57311461089b57806370a08231146108bb5780637139c929146108db57600080fd5b80632c36cca11161031857806340c9ff8a116102ab5780634d83f62d1161027a57806350f62da71161025f57806350f62da71461080857806352ec2ccd1461083657806361d027b31461086457600080fd5b80634d83f62d146107d35780634f6ccce7146107e857600080fd5b806340c9ff8a1461075357806341a5068f1461077357806342842e0e146107935780634432d729146107b357600080fd5b806336568abe116102e757806336568abe146106d35780633b324790146106f35780633d0f34da146107135780633db991771461073357600080fd5b80632c36cca11461064e5780632f2ff15d1461067c5780632f745c591461069c578063311f392a146106bc57600080fd5b8063124e39711161039057806321a78f681161035f57806321a78f68146105c657806323b872dd146105e7578063248a9ca3146106075780632935d2bc1461063757600080fd5b8063124e39711461053e57806318160ddd1461056c5780631bfa474f146105815780631c883e7b146105af57600080fd5b8063081812fc116103cc578063081812fc146104b357806308ec5927146104eb578063095ea7b3146104fe5780630a998f531461051e57600080fd5b806301e49d0a146103fe57806301ffc9a71461042057806303d218a51461045557806306fdde0314610491575b600080fd5b34801561040a57600080fd5b5061041e610419366004614b7a565b610c90565b005b34801561042c57600080fd5b5061044061043b366004614bb6565b610d3c565b60405190151581526020015b60405180910390f35b34801561046157600080fd5b506104836104703660046149d9565b6101446020526000908152604090205481565b60405190815260200161044c565b34801561049d57600080fd5b506104a6610d4d565b60405161044c9190614ea9565b3480156104bf57600080fd5b506104d36104ce366004614b7a565b610ddf565b6040516001600160a01b03909116815260200161044c565b61041e6104f9366004614d54565b610e74565b34801561050a57600080fd5b5061041e610519366004614b17565b61129a565b34801561052a57600080fd5b5061041e610539366004614b7a565b6113cc565b34801561054a57600080fd5b506104836105593660046149d9565b6101426020526000908152604090205481565b34801561057857600080fd5b5060cb54610483565b34801561058d57600080fd5b5061048361059c3660046149d9565b6101436020526000908152604090205481565b3480156105bb57600080fd5b5061048361012f5481565b3480156105d257600080fd5b5061013a546104d3906001600160a01b031681565b3480156105f357600080fd5b5061041e610602366004614a2d565b6114e6565b34801561061357600080fd5b50610483610622366004614b7a565b600090815260fb602052604090206001015490565b34801561064357600080fd5b506104836101335481565b34801561065a57600080fd5b50610483610669366004614b7a565b61013e6020526000908152604090205481565b34801561068857600080fd5b5061041e610697366004614b92565b61156d565b3480156106a857600080fd5b506104836106b7366004614b17565b611593565b3480156106c857600080fd5b506104836101365481565b3480156106df57600080fd5b5061041e6106ee366004614b92565b61163b565b3480156106ff57600080fd5b5061041e61070e3660046149d9565b6116c7565b34801561071f57600080fd5b5061048361072e366004614bee565b6117ab565b34801561073f57600080fd5b5061041e61074e366004614b7a565b611855565b34801561075f57600080fd5b5061041e61076e366004614b7a565b6118f5565b34801561077f57600080fd5b5061041e61078e366004614cc2565b6119c9565b34801561079f57600080fd5b5061041e6107ae366004614a2d565b611bbb565b3480156107bf57600080fd5b5061041e6107ce366004614d54565b611bd6565b3480156107df57600080fd5b50610483611fb4565b3480156107f457600080fd5b50610483610803366004614b7a565b611fc5565b34801561081457600080fd5b506104836108233660046149d9565b6101416020526000908152604090205481565b34801561084257600080fd5b50610483610851366004614b7a565b61013d6020526000908152604090205481565b34801561087057600080fd5b5061048361013b5481565b34801561088757600080fd5b506104d3610896366004614b7a565b612077565b3480156108a757600080fd5b5061041e6108b6366004614b92565b612102565b3480156108c757600080fd5b506104836108d63660046149d9565b612218565b3480156108e757600080fd5b5061041e6108f6366004614b7a565b6122b2565b34801561090757600080fd5b506104836101305481565b34801561091e57600080fd5b5061048361092d3660046149d9565b6101376020526000908152604090205481565b34801561094c57600080fd5b5061041e61095b366004614d54565b612327565b34801561096c57600080fd5b506104836101345481565b34801561098357600080fd5b50610440610992366004614b7a565b600090815261013c602052604090205460ff1690565b3480156109b457600080fd5b5061041e6109c3366004614b7a565b6125fd565b3480156109d457600080fd5b506104406109e3366004614b92565b600091825260fb602090815260408084206001600160a01b0393909316845291905290205460ff1690565b348015610a1a57600080fd5b506104a661264c565b348015610a2f57600080fd5b5061013154610483565b348015610a4557600080fd5b50610483600081565b348015610a5a57600080fd5b5061041e610a69366004614aea565b61265b565b348015610a7a57600080fd5b5061041e612666565b348015610a8f57600080fd5b5061041e610a9e366004614b42565b6126f7565b348015610aaf57600080fd5b5061041e610abe366004614b7a565b61277d565b348015610acf57600080fd5b5061041e610ade366004614a6d565b612845565b348015610aef57600080fd5b506104a6610afe366004614b7a565b6128d3565b348015610b0f57600080fd5b5061048361013f5481565b348015610b2657600080fd5b506104836101315481565b348015610b3d57600080fd5b506104836101355481565b348015610b5457600080fd5b5061048360008051602061507583398151915281565b348015610b7657600080fd5b5061041e610b85366004614b92565b6129c9565b348015610b9657600080fd5b5061041e610ba5366004614b7a565b6129ef565b348015610bb657600080fd5b50610140546104409060ff1681565b348015610bd157600080fd5b506104836101325481565b61041e610bea366004614b7a565b612c12565b348015610bfb57600080fd5b50610440610c0a3660046149f5565b6001600160a01b039182166000908152606a6020908152604080832093909416825291909152205460ff1690565b348015610c4457600080fd5b5061041e610c53366004614d54565b612d5c565b348015610c6457600080fd5b50610139546104d3906001600160a01b031681565b348015610c8557600080fd5b5061048361012e5481565b600080516020615075833981519152610ca98133612ec4565b60008211610cfe5760405162461bcd60e51b815260206004820152601260248201527f5065672063616e6e6f74206265207a65726f000000000000000000000000000060448201526064015b60405180910390fd5b6101318290556040518281527f657d2b8cd9c1cd7fc4cfad3db71318ea067f53cfeb214befc5af59ed860d5a16906020015b60405180910390a15050565b6000610d4782612f44565b92915050565b606060658054610d5c90614f8f565b80601f0160208091040260200160405190810160405280929190818152602001828054610d8890614f8f565b8015610dd55780601f10610daa57610100808354040283529160200191610dd5565b820191906000526020600020905b815481529060010190602001808311610db857829003601f168201915b5050505050905090565b6000818152606760205260408120546001600160a01b0316610e585760405162461bcd60e51b815260206004820152602c60248201527f4552433732313a20617070726f76656420717565727920666f72206e6f6e657860448201526b34b9ba32b73a103a37b5b2b760a11b6064820152608401610cf5565b506000908152606960205260409020546001600160a01b031690565b600082815261013c6020526040902054829060ff16610ecb5760405162461bcd60e51b815260206004820152601360248201527214d8599948191bd95cc81b9bdd08195e1a5cdd606a1b6044820152606401610cf5565b33610ed582612077565b6001600160a01b031614610f265760405162461bcd60e51b815260206004820152601860248201527753616665206973206e6f74206f776e656420627920796f7560401b6044820152606401610cf5565b60026097541415610f795760405162461bcd60e51b815260206004820152601f60248201527f5265656e7472616e637947756172643a207265656e7472616e742063616c6c006044820152606401610cf5565b60026097556101405460ff1615610ff85760405162461bcd60e51b815260206004820152602160248201527f4d696e74696e6720666f722074686973207661756c742069732070617573656460448201527f2e000000000000000000000000000000000000000000000000000000000000006064820152608401610cf5565b600082116110485760405162461bcd60e51b815260206004820152601a60248201527f4d75737420626f72726f77206d6f7265207468616e207a65726f0000000000006044820152606401610cf5565b610132548261012e5461105b9190614eea565b11156110a95760405162461bcd60e51b815260206004820152601d60248201527f43616e6e6f74206d696e74206f7665722064656274206365696c696e670000006044820152606401610cf5565b600083815261013e60205260408120546110c4908490614eea565b600085815261013d60205260409020549091506110e19082612f82565b6111535760405162461bcd60e51b815260206004820152603960248201527f426f72726f7720776f756c642070757420736166652062656c6f77206d696e6960448201527f6d756d20636f6c6c61746572616c2070657263656e74616765000000000000006064820152608401610cf5565b61013f548110156111cc5760405162461bcd60e51b815260206004820152602660248201527f426f72726f77206e6565647320746f206265206c6172676572207468616e206d60448201527f696e696d756d00000000000000000000000000000000000000000000000000006064820152608401610cf5565b6111d68484612fbe565b610138546040517f40c10f19000000000000000000000000000000000000000000000000000000008152336004820152602481018590526001600160a01b03909116906340c10f1990604401600060405180830381600087803b15801561123c57600080fd5b505af1158015611250573d6000803e3d6000fd5b505060408051878152602081018790527f3e08df88d8e28f37df9bf227d3142ac506a364403445661a60891a49ed6792ca93500190505b60405180910390a1505060016097555050565b60006112a582612077565b9050806001600160a01b0316836001600160a01b0316141561132f5760405162461bcd60e51b815260206004820152602160248201527f4552433732313a20617070726f76616c20746f2063757272656e74206f776e6560448201527f72000000000000000000000000000000000000000000000000000000000000006064820152608401610cf5565b336001600160a01b038216148061134b575061134b8133610c0a565b6113bd5760405162461bcd60e51b815260206004820152603860248201527f4552433732313a20617070726f76652063616c6c6572206973206e6f74206f7760448201527f6e6572206e6f7220617070726f76656420666f7220616c6c00000000000000006064820152608401610cf5565b6113c783836130b0565b505050565b6000805160206150758339815191526113e58133612ec4565b600082116114355760405162461bcd60e51b815260206004820152601b60248201527f4d696e696d756d20646562742063616e6e6f74206265207a65726f00000000006044820152606401610cf5565b6101325461013f54106114b05760405162461bcd60e51b815260206004820152603060248201527f4d696e696d756d20646562742063616e6e6f742062652067726561746572207460448201527f68616e2064656274206365696c696e67000000000000000000000000000000006064820152608401610cf5565b61013f8290556040518281527fe9031d105129d4c03f829c02017c30a898f35e17ddf050fdd090c416442bec5a90602001610d30565b6114f0338261311e565b6115625760405162461bcd60e51b815260206004820152603160248201527f4552433732313a207472616e736665722063616c6c6572206973206e6f74206f60448201527f776e6572206e6f7220617070726f7665640000000000000000000000000000006064820152608401610cf5565b6113c7838383613215565b600082815260fb60205260409020600101546115898133612ec4565b6113c7838361325d565b600061159e83612218565b82106116125760405162461bcd60e51b815260206004820152602b60248201527f455243373231456e756d657261626c653a206f776e657220696e646578206f7560448201527f74206f6620626f756e64730000000000000000000000000000000000000000006064820152608401610cf5565b506001600160a01b0391909116600090815260c960209081526040808320938352929052205490565b6001600160a01b03811633146116b95760405162461bcd60e51b815260206004820152602f60248201527f416363657373436f6e74726f6c3a2063616e206f6e6c792072656e6f756e636560448201527f20726f6c657320666f722073656c6600000000000000000000000000000000006064820152608401610cf5565b6116c382826132ff565b5050565b6000805160206150758339815191526116e08133612ec4565b6001600160a01b03821661175c5760405162461bcd60e51b815260206004820152602360248201527f507269636520736f757263652063616e6e6f74206265207a65726f206164647260448201527f65737300000000000000000000000000000000000000000000000000000000006064820152608401610cf5565b61013a80546001600160a01b0319166001600160a01b0384169081179091556040519081527f0cceb07a7779ad6a843fa25c1edf388fa7d475fd272362902340022d8131be4590602001610d30565b61013a546040517f65555bcc00000000000000000000000000000000000000000000000000000000815260009182916001600160a01b03909116906365555bcc906117fc9087908790600401614ebc565b60606040518083038186803b15801561181457600080fd5b505afa158015611828573d6000803e3d6000fd5b505050506040513d601f19601f8201168201806040525081019061184c9190614c4f565b51949350505050565b60008051602061507583398151915261186e8133612ec4565b60fa8211156118bf5760405162461bcd60e51b815260206004820152601e60248201527f436c6f73696e67206665652063616e6e6f742062652061626f766520312500006044820152606401610cf5565b61012f8290556040518281527f2be5116c37a9989b15d218af1d929034cabc673c9c821d52a901411be5eafd2890602001610d30565b60008051602061507583398151915261190e8133612ec4565b6078821015801561192157506101908211155b6119935760405162461bcd60e51b815260206004820152603560248201527f4d696e696d756d20636f6c6c61746572616c2070657263656e74616765206d7560448201527f7374206265206265747765656e203132302d34303000000000000000000000006064820152608401610cf5565b6101338290556040518281527f7000b9ed11b8e46398a2b1ab69c9e3b0dcd610dbb1156aeb46ec8c33663a802e90602001610d30565b600054610100900460ff166119e45760005460ff16156119e8565b303b155b611a5a5760405162461bcd60e51b815260206004820152602e60248201527f496e697469616c697a61626c653a20636f6e747261637420697320616c72656160448201527f647920696e697469616c697a65640000000000000000000000000000000000006064820152608401610cf5565b600054610100900460ff16158015611a7c576000805461ffff19166101011790555b611a84613382565b611a8c613382565b611a9684846133ef565b611a9e613382565b611aa6613481565b611aae613382565b6001600160a01b038516611ad257634e487b7160e01b600052600160045260246000fd5b6064861015611af157634e487b7160e01b600052600160045260246000fd5b678ac7230489e8000061013255604b61012f5560006101308190556305f5e10061013155600261013555600b6101365561013a80546001600160a01b03199081166001600160a01b03898116919091179092556101398054821692861692909217909155610138805433921682179055611b6b91906134f3565b611b83600080516020615075833981519152336134f3565b611b9b600080516020615075833981519152806134fd565b6101338690558015611bb3576000805461ff00191690555b505050505050565b6113c783838360405180602001604052806000815250612845565b600082815261013c6020526040902054829060ff16611c2d5760405162461bcd60e51b815260206004820152601360248201527214d8599948191bd95cc81b9bdd08195e1a5cdd606a1b6044820152606401610cf5565b33611c3782612077565b6001600160a01b031614611c885760405162461bcd60e51b815260206004820152601860248201527753616665206973206e6f74206f776e656420627920796f7560401b6044820152606401610cf5565b60026097541415611cdb5760405162461bcd60e51b815260206004820152601f60248201527f5265656e7472616e637947756172643a207265656e7472616e742063616c6c006044820152606401610cf5565b6002609755610138546040517f70a0823100000000000000000000000000000000000000000000000000000000815233600482015283916001600160a01b0316906370a082319060240160206040518083038186803b158015611d3d57600080fd5b505afa158015611d51573d6000803e3d6000fd5b505050506040513d601f19601f82011682018060405250810190611d759190614caa565b1015611dc35760405162461bcd60e51b815260206004820152601560248201527f546f6b656e2062616c616e636520746f6f206c6f7700000000000000000000006044820152606401610cf5565b600083815261013e6020526040902054821115611e485760405162461bcd60e51b815260206004820152602760248201527f5661756c742064656274206c657373207468616e20616d6f756e7420746f207060448201527f6179206261636b000000000000000000000000000000000000000000000000006064820152608401610cf5565b600060016402540be400611e926040518060400160405280600381526020016221a5a160e91b815250604051806040016040528060038152602001621554d160ea1b8152506117ab565b611e9c9190614f02565b611ea890612710614f16565b6101315461012f54611eba9087614f16565b611ec49190614f16565b611ece9190614f02565b611ed89190614f02565b9050611ee48484613548565b611eee84826136cd565b611ef7816137b4565b610138546040517f9dc29fac000000000000000000000000000000000000000000000000000000008152336004820152602481018590526001600160a01b0390911690639dc29fac90604401600060405180830381600087803b158015611f5d57600080fd5b505af1158015611f71573d6000803e3d6000fd5b505060408051878152602081018790529081018490527f4d31657d816f48a9f9d6ee5c04e69c036de6170c9dd58d92a36e00ac9e9359c892506060019050611287565b6000611fc061012d5490565b905090565b6000611fd060cb5490565b82106120445760405162461bcd60e51b815260206004820152602c60248201527f455243373231456e756d657261626c653a20676c6f62616c20696e646578206f60448201527f7574206f6620626f756e647300000000000000000000000000000000000000006064820152608401610cf5565b60cb828154811061206557634e487b7160e01b600052603260045260246000fd5b90600052602060002001549050919050565b6000818152606760205260408120546001600160a01b031680610d475760405162461bcd60e51b815260206004820152602960248201527f4552433732313a206f776e657220717565727920666f72206e6f6e657869737460448201527f656e7420746f6b656e00000000000000000000000000000000000000000000006064820152608401610cf5565b600082815261013c6020526040902054829060ff166121595760405162461bcd60e51b815260206004820152601360248201527214d8599948191bd95cc81b9bdd08195e1a5cdd606a1b6044820152606401610cf5565b3361216382612077565b6001600160a01b0316146121b45760405162461bcd60e51b815260206004820152601860248201527753616665206973206e6f74206f776e656420627920796f7560401b6044820152606401610cf5565b6121bd8361381e565b6121c782846138c5565b604080518481523360208201526001600160a01b038416918101919091527faca3684f0795e0286bb8662d00a63581e21963472afd28d12e3d60317dc8e01c906060015b60405180910390a1505050565b60006001600160a01b0382166122965760405162461bcd60e51b815260206004820152602a60248201527f4552433732313a2062616c616e636520717565727920666f7220746865207a6560448201527f726f2061646472657373000000000000000000000000000000000000000000006064820152608401610cf5565b506001600160a01b031660009081526068602052604090205490565b6000805160206150758339815191526122cb8133612ec4565b600082815261013c602052604090205460ff166123205760405162461bcd60e51b815260206004820152601360248201527214d8599948191bd95cc81b9bdd08195e1a5cdd606a1b6044820152606401610cf5565b5061013b55565b600082815261013c6020526040902054829060ff1661237e5760405162461bcd60e51b815260206004820152601360248201527214d8599948191bd95cc81b9bdd08195e1a5cdd606a1b6044820152606401610cf5565b3361238882612077565b6001600160a01b0316146123d95760405162461bcd60e51b815260206004820152601860248201527753616665206973206e6f74206f776e656420627920796f7560401b6044820152606401610cf5565b6002609754141561242c5760405162461bcd60e51b815260206004820152601f60248201527f5265656e7472616e637947756172643a207265656e7472616e742063616c6c006044820152606401610cf5565b6002609755600083815261013d60205260409020548211156124b55760405162461bcd60e51b8152602060048201526024808201527f5361666520646f6573206e6f74206861766520656e6f75676820636f6c6c617460448201527f6572616c000000000000000000000000000000000000000000000000000000006064820152608401610cf5565b600083815261013d60205260408120546124d0908490614f35565b600085815261013e60205260409020549091501561257557600084815261013e6020526040902054612503908290612f82565b6125755760405162461bcd60e51b815260206004820152602260248201527f576974686472617720776f756c642070757420736166652062656c6f77206d6360448201527f70210000000000000000000000000000000000000000000000000000000000006064820152608401610cf5565b6040513390819085156108fc029086906000818181858888f193505050501580156125a4573d6000803e3d6000fd5b50600085815261013d602090815260409182902084905581518781529081018690527f6c0ea3bea9dd66afa8f9d39d6eb93d833466190330813b42835efc650dca4cb9910160405180910390a150506001609755505050565b6000805160206150758339815191526126168133612ec4565b6101308290556040518281527ff78536edc296a3a7e991e00caa8319c68a84cc56f22e8c9118463773d0844b9390602001610d30565b606060668054610d5c90614f8f565b6116c3338383613a13565b61267561012d80546001019055565b600061268161012d5490565b600081815261013c602052604090819020805460ff19166001179055519091507f3a2b6a6c6dd2e186fa5889eb2b5f7338ca9c02c3801c54dc77a80a13b3890353906126e290839033909182526001600160a01b0316602082015260400190565b60405180910390a16126f433826138c5565b50565b6000805160206150758339815191526127108133612ec4565b6101405460ff1615821515146127685760405162461bcd60e51b815260206004820152601660248201527f4d696e74696e6720616c726561647920706175736564000000000000000000006044820152606401610cf5565b50610140805460ff1916911515919091179055565b6000805160206150758339815191526127968133612ec4565b8161013254111561280f5760405162461bcd60e51b815260206004820152603f60248201527f7365744365696c696e673a204d757374206265206f7665722074686520616d6f60448201527f756e74206f66207468652063757272656e742064656274206365696c696e67006064820152608401610cf5565b6101328290556040518281527f9e88375210357aa5dbeb756c2deee5a1a487e6dcd9fa8f444eda3bc7df41a37b90602001610d30565b61284f338361311e565b6128c15760405162461bcd60e51b815260206004820152603160248201527f4552433732313a207472616e736665722063616c6c6572206973206e6f74206f60448201527f776e6572206e6f7220617070726f7665640000000000000000000000000000006064820152608401610cf5565b6128cd84848484613ae2565b50505050565b6000818152606760205260409020546060906001600160a01b03166129605760405162461bcd60e51b815260206004820152602f60248201527f4552433732314d657461646174613a2055524920717565727920666f72206e6f60448201527f6e6578697374656e7420746f6b656e00000000000000000000000000000000006064820152608401610cf5565b600061297760408051602081019091526000815290565b9050600081511161299757604051806020016040528060008152506129c2565b806129a184613b6b565b6040516020016129b2929190614dbd565b6040516020818303038152906040525b9392505050565b600082815260fb60205260409020600101546129e58133612ec4565b6113c783836132ff565b600081815261013c6020526040902054819060ff16612a465760405162461bcd60e51b815260206004820152601360248201527214d8599948191bd95cc81b9bdd08195e1a5cdd606a1b6044820152606401610cf5565b33612a5082612077565b6001600160a01b031614612aa15760405162461bcd60e51b815260206004820152601860248201527753616665206973206e6f74206f776e656420627920796f7560401b6044820152606401610cf5565b60026097541415612af45760405162461bcd60e51b815260206004820152601f60248201527f5265656e7472616e637947756172643a207265656e7472616e742063616c6c006044820152606401610cf5565b6002609755600082815261013e602052604090205415612b565760405162461bcd60e51b815260206004820152601a60248201527f205361666520686173206f75747374616e64696e6720646562740000000000006044820152606401610cf5565b600082815261013d6020526040902054612b6f8361381e565b600083815261013c60209081526040808320805460ff1916905561013d825280832083905561013e9091528120558015612bd5576040513390819083156108fc029084906000818181858888f19350505050158015612bd2573d6000803e3d6000fd5b50505b6040518381527f67e768c3ea2beec18f82ac9f20f58fd3144cd624ca134841e5ad2f22e96944399060200160405180910390a15050600160975550565b600081815261013c6020526040902054819060ff16612c695760405162461bcd60e51b815260206004820152601360248201527214d8599948191bd95cc81b9bdd08195e1a5cdd606a1b6044820152606401610cf5565b33612c7382612077565b6001600160a01b031614612cc45760405162461bcd60e51b815260206004820152601860248201527753616665206973206e6f74206f776e656420627920796f7560401b6044820152606401610cf5565b600082815261013d6020526040812054612cdf903490614eea565b600084815261013d6020526040902054909150811015612d0f57634e487b7160e01b600052600160045260246000fd5b600083815261013d602052604090819020829055517f431200c6f9128e1339cfa624831f07c4fd4eed928ad90e3ef774a083ece4ecfd9061220b9085903490918252602082015260400190565b600082815261013c6020526040902054829060ff16612db35760405162461bcd60e51b815260206004820152601360248201527214d8599948191bd95cc81b9bdd08195e1a5cdd606a1b6044820152606401610cf5565b33612dbd82612077565b6001600160a01b031614612e0e5760405162461bcd60e51b815260206004820152601860248201527753616665206973206e6f74206f776e656420627920796f7560401b6044820152606401610cf5565b61013954612e27906001600160a01b0316333085613c85565b600083815261013d6020526040812054612e42908490614eea565b600085815261013d6020526040902054909150811015612e7257634e487b7160e01b600052600160045260246000fd5b600084815261013d602090815260409182902083905581518681529081018590527f52c4e7127ec34e8fc95f09ce2d06b4f00acca12ccbcdfb246ef67ee6aefe068d910160405180910390a150505050565b600082815260fb602090815260408083206001600160a01b038516845290915290205460ff166116c357612f02816001600160a01b03166014613d0d565b612f0d836020613d0d565b604051602001612f1e929190614dec565b60408051601f198184030181529082905262461bcd60e51b8252610cf591600401614ea9565b60006001600160e01b031982167f7965db0b000000000000000000000000000000000000000000000000000000001480610d475750610d4782613f18565b6000806000612f918585613f56565b9092509050600081612fa4846001614f16565b612fae9190614f02565b6101335411159695505050505050565b600061012e5482612fcf9190614eea565b905061012e54811015612ff257634e487b7160e01b600052600160045260246000fd5b610132548111156130455760405162461bcd60e51b815260206004820152601a60248201527f43616e6e6f74206578636565642064656274206365696c696e670000000000006044820152606401610cf5565b600083815261013e602052604081205461305f9084614eea565b600085815261013e602052604090205490915081101561308f57634e487b7160e01b600052600160045260246000fd5b613098836140c5565b600093845261013e6020526040909320929092555050565b600081815260696020526040902080546001600160a01b0319166001600160a01b03841690811790915581906130e582612077565b6001600160a01b03167f8c5be1e5ebec7d5bd14f71427d1e84f3dd0314c0f7b2291e5b200ac8c7c3b92560405160405180910390a45050565b6000818152606760205260408120546001600160a01b03166131975760405162461bcd60e51b815260206004820152602c60248201527f4552433732313a206f70657261746f7220717565727920666f72206e6f6e657860448201526b34b9ba32b73a103a37b5b2b760a11b6064820152608401610cf5565b60006131a283612077565b9050806001600160a01b0316846001600160a01b031614806131dd5750836001600160a01b03166131d284610ddf565b6001600160a01b0316145b8061320d57506001600160a01b038082166000908152606a602090815260408083209388168352929052205460ff165b949350505050565b60405162461bcd60e51b815260206004820152601260248201527f7472616e736665723a2064697361626c656400000000000000000000000000006044820152606401610cf5565b600082815260fb602090815260408083206001600160a01b038516845290915290205460ff166116c357600082815260fb602090815260408083206001600160a01b03851684529091529020805460ff191660011790556132bb3390565b6001600160a01b0316816001600160a01b0316837f2f8788117e7eff1d82e926ec794901d17c78024a50270940304540a733656f0d60405160405180910390a45050565b600082815260fb602090815260408083206001600160a01b038516845290915290205460ff16156116c357600082815260fb602090815260408083206001600160a01b0385168085529252808320805460ff1916905551339285917ff6391f5c32d9c69d2a47ea670b442974b53935d1edc7fd64eb21e047a839171b9190a45050565b600054610100900460ff166133ed5760405162461bcd60e51b815260206004820152602b60248201527f496e697469616c697a61626c653a20636f6e7472616374206973206e6f74206960448201526a6e697469616c697a696e6760a81b6064820152608401610cf5565b565b600054610100900460ff1661345a5760405162461bcd60e51b815260206004820152602b60248201527f496e697469616c697a61626c653a20636f6e7472616374206973206e6f74206960448201526a6e697469616c697a696e6760a81b6064820152608401610cf5565b815161346d9060659060208501906148ab565b5080516113c79060669060208401906148ab565b600054610100900460ff166134ec5760405162461bcd60e51b815260206004820152602b60248201527f496e697469616c697a61626c653a20636f6e7472616374206973206e6f74206960448201526a6e697469616c697a696e6760a81b6064820152608401610cf5565b6001609755565b6116c3828261325d565b600082815260fb6020526040808220600101805490849055905190918391839186917fbd79b86ffe0ab8e8776151514217cd7cacd52c909f66475c3af44e129f0b00ff9190a4505050565b8061012e5410156135c15760405162461bcd60e51b815260206004820152602360248201527f43616e6e6f742072656d6f7665206d6f72652064656274207468616e2065786960448201527f73747300000000000000000000000000000000000000000000000000000000006064820152608401610cf5565b600082815261013e60205260409020548111156136455760405162461bcd60e51b8152602060048201526024808201527f43616e6e6f742072656d6f7665206d6f7265206465627420746861742063757260448201527f72656e74000000000000000000000000000000000000000000000000000000006064820152608401610cf5565b60008161012e546136569190614f35565b905061012e5481111561367957634e487b7160e01b600052600160045260246000fd5b600083815261013e6020526040812054613694908490614f35565b600085815261013e60205260409020549091508111156136c457634e487b7160e01b600052600160045260246000fd5b61309883614158565b600082815261013d60205260409020548111156137525760405162461bcd60e51b815260206004820152602c60248201527f43616e6e6f742072656d6f7665206d6f7265207468616e206465706f7369746560448201527f6420636f6c6c61746572616c00000000000000000000000000000000000000006064820152608401610cf5565b600082815261013d602052604081205461376d908390614f35565b600084815261013d602052604090205490915081111561379d57634e487b7160e01b600052600160045260246000fd5b600092835261013d60205260409092209190915550565b61013b54600090815261013d60205260408120546137d3908390614eea565b61013b54600090815261013d602052604090205490915081101561380757634e487b7160e01b600052600160045260246000fd5b61013b54600090815261013d602052604090205550565b600061382982612077565b9050613837816000846141c4565b6138426000836130b0565b6001600160a01b038116600090815260686020526040812080546001929061386b908490614f35565b909155505060008281526067602052604080822080546001600160a01b0319169055518391906001600160a01b038416907fddf252ad1be2c89b69c2b068fc378daa952ba7f163c4a11628f55a4df523b3ef908390a45050565b6001600160a01b03821661391b5760405162461bcd60e51b815260206004820181905260248201527f4552433732313a206d696e7420746f20746865207a65726f20616464726573736044820152606401610cf5565b6000818152606760205260409020546001600160a01b0316156139805760405162461bcd60e51b815260206004820152601c60248201527f4552433732313a20746f6b656e20616c7265616479206d696e746564000000006044820152606401610cf5565b61398c600083836141c4565b6001600160a01b03821660009081526068602052604081208054600192906139b5908490614eea565b909155505060008181526067602052604080822080546001600160a01b0319166001600160a01b03861690811790915590518392907fddf252ad1be2c89b69c2b068fc378daa952ba7f163c4a11628f55a4df523b3ef908290a45050565b816001600160a01b0316836001600160a01b03161415613a755760405162461bcd60e51b815260206004820152601960248201527f4552433732313a20617070726f766520746f2063616c6c6572000000000000006044820152606401610cf5565b6001600160a01b038381166000818152606a6020908152604080832094871680845294825291829020805460ff191686151590811790915591519182527f17307eab39ab6107e8899845ad3d59bd9653f200f220920489ca2b5937696c31910160405180910390a3505050565b613aed848484613215565b613af9848484846141cf565b6128cd5760405162461bcd60e51b815260206004820152603260248201527f4552433732313a207472616e7366657220746f206e6f6e20455243373231526560448201527f63656976657220696d706c656d656e74657200000000000000000000000000006064820152608401610cf5565b606081613b8f5750506040805180820190915260018152600360fc1b602082015290565b8160005b8115613bb95780613ba381614fca565b9150613bb29050600a83614f02565b9150613b93565b60008167ffffffffffffffff811115613be257634e487b7160e01b600052604160045260246000fd5b6040519080825280601f01601f191660200182016040528015613c0c576020820181803683370190505b5090505b841561320d57613c21600183614f35565b9150613c2e600a86614fe5565b613c39906030614eea565b60f81b818381518110613c5c57634e487b7160e01b600052603260045260246000fd5b60200101906001600160f81b031916908160001a905350613c7e600a86614f02565b9450613c10565b604080516001600160a01b0385811660248301528416604482015260648082018490528251808303909101815260849091019091526020810180517bffffffffffffffffffffffffffffffffffffffffffffffffffffffff167f23b872dd000000000000000000000000000000000000000000000000000000001790526128cd908590614332565b60606000613d1c836002614f16565b613d27906002614eea565b67ffffffffffffffff811115613d4d57634e487b7160e01b600052604160045260246000fd5b6040519080825280601f01601f191660200182016040528015613d77576020820181803683370190505b509050600360fc1b81600081518110613da057634e487b7160e01b600052603260045260246000fd5b60200101906001600160f81b031916908160001a9053507f780000000000000000000000000000000000000000000000000000000000000081600181518110613df957634e487b7160e01b600052603260045260246000fd5b60200101906001600160f81b031916908160001a9053506000613e1d846002614f16565b613e28906001614eea565b90505b6001811115613ec9577f303132333435363738396162636465660000000000000000000000000000000085600f1660108110613e7757634e487b7160e01b600052603260045260246000fd5b1a60f81b828281518110613e9b57634e487b7160e01b600052603260045260246000fd5b60200101906001600160f81b031916908160001a90535060049490941c93613ec281614f78565b9050613e2b565b5083156129c25760405162461bcd60e51b815260206004820181905260248201527f537472696e67733a20686578206c656e67746820696e73756666696369656e746044820152606401610cf5565b60006001600160e01b031982167f780e9d63000000000000000000000000000000000000000000000000000000001480610d475750610d4782614417565b600080613f996040518060400160405280600381526020016221a5a160e91b815250604051806040016040528060038152602001621554d160ea1b8152506117ab565b613fe55760405162461bcd60e51b815260206004820152601560248201527f5072696365206d7573742062652061626f7665203000000000000000000000006044820152606401610cf5565b610131546140355760405162461bcd60e51b815260206004820152601360248201527f506567206d7573742062652061626f76652030000000000000000000000000006044820152606401610cf5565b60006402540be40061407d6040518060400160405280600381526020016221a5a160e91b815250604051806040016040528060038152602001621554d160ea1b8152506117ab565b6140879190614f02565b6140919086614f16565b9050600061409f6101315490565b6140a99086614f16565b905060006140b8836064614f16565b9791965090945050505050565b60008161012e546140d69190614eea565b9050610132548111156141515760405162461bcd60e51b815260206004820152602360248201527f446562742063616e206e6f7420626520686967686572207468616e206365696c60448201527f696e6700000000000000000000000000000000000000000000000000000000006064820152608401610cf5565b61012e5550565b61012e548111156141ab5760405162461bcd60e51b815260206004820152601760248201527f446562742063616e206e6f7420676f2062656c6f7720300000000000000000006044820152606401610cf5565b60008161012e546141bc9190614f35565b61012e555050565b6113c78383836144b2565b60006001600160a01b0384163b1561432757604051630a85bd0160e11b81526001600160a01b0385169063150b7a0290614213903390899088908890600401614e6d565b602060405180830381600087803b15801561422d57600080fd5b505af192505050801561425d575060408051601f3d908101601f1916820190925261425a91810190614bd2565b60015b61430d573d80801561428b576040519150601f19603f3d011682016040523d82523d6000602084013e614290565b606091505b5080516143055760405162461bcd60e51b815260206004820152603260248201527f4552433732313a207472616e7366657220746f206e6f6e20455243373231526560448201527f63656976657220696d706c656d656e74657200000000000000000000000000006064820152608401610cf5565b805181602001fd5b6001600160e01b031916630a85bd0160e11b14905061320d565b506001949350505050565b6000614387826040518060400160405280602081526020017f5361666545524332303a206c6f772d6c6576656c2063616c6c206661696c6564815250856001600160a01b031661456a9092919063ffffffff16565b8051909150156113c757808060200190518101906143a59190614b5e565b6113c75760405162461bcd60e51b815260206004820152602a60248201527f5361666545524332303a204552433230206f7065726174696f6e20646964206e60448201527f6f742073756363656564000000000000000000000000000000000000000000006064820152608401610cf5565b60006001600160e01b031982167f80ac58cd00000000000000000000000000000000000000000000000000000000148061447a57506001600160e01b031982167f5b5e139f00000000000000000000000000000000000000000000000000000000145b80610d4757507f01ffc9a7000000000000000000000000000000000000000000000000000000006001600160e01b0319831614610d47565b6001600160a01b03831661450d576145088160cb8054600083815260cc60205260408120829055600182018355919091527fa7ce836d032b2bf62b7e2097a8e0a6d8aeb35405ad15271e96d3b0188a1d06fb0155565b614530565b816001600160a01b0316836001600160a01b031614614530576145308382614579565b6001600160a01b038216614547576113c781614616565b826001600160a01b0316826001600160a01b0316146113c7576113c782826146ef565b606061320d8484600085614733565b6000600161458684612218565b6145909190614f35565b600083815260ca60205260409020549091508082146145e3576001600160a01b038416600090815260c960209081526040808320858452825280832054848452818420819055835260ca90915290208190555b50600091825260ca602090815260408084208490556001600160a01b03909416835260c981528383209183525290812055565b60cb5460009061462890600190614f35565b600083815260cc602052604081205460cb805493945090928490811061465e57634e487b7160e01b600052603260045260246000fd5b906000526020600020015490508060cb838154811061468d57634e487b7160e01b600052603260045260246000fd5b600091825260208083209091019290925582815260cc909152604080822084905585825281205560cb8054806146d357634e487b7160e01b600052603160045260246000fd5b6001900381819060005260206000200160009055905550505050565b60006146fa83612218565b6001600160a01b03909316600090815260c960209081526040808320868452825280832085905593825260ca9052919091209190915550565b6060824710156147ab5760405162461bcd60e51b815260206004820152602660248201527f416464726573733a20696e73756666696369656e742062616c616e636520666f60448201527f722063616c6c00000000000000000000000000000000000000000000000000006064820152608401610cf5565b843b6147f95760405162461bcd60e51b815260206004820152601d60248201527f416464726573733a2063616c6c20746f206e6f6e2d636f6e74726163740000006044820152606401610cf5565b600080866001600160a01b031685876040516148159190614da1565b60006040518083038185875af1925050503d8060008114614852576040519150601f19603f3d011682016040523d82523d6000602084013e614857565b606091505b5091509150614867828286614872565b979650505050505050565b606083156148815750816129c2565b8251156148915782518084602001fd5b8160405162461bcd60e51b8152600401610cf59190614ea9565b8280546148b790614f8f565b90600052602060002090601f0160209004810192826148d9576000855561491f565b82601f106148f257805160ff191683800117855561491f565b8280016001018555821561491f579182015b8281111561491f578251825591602001919060010190614904565b5061492b92915061492f565b5090565b5b8082111561492b5760008155600101614930565b600067ffffffffffffffff8084111561495f5761495f615025565b604051601f8501601f19908116603f0116810190828211818310171561498757614987615025565b816040528093508581528686860111156149a057600080fd5b858560208301376000602087830101525050509392505050565b600082601f8301126149ca578081fd5b6129c283833560208501614944565b6000602082840312156149ea578081fd5b81356129c28161503b565b60008060408385031215614a07578081fd5b8235614a128161503b565b91506020830135614a228161503b565b809150509250929050565b600080600060608486031215614a41578081fd5b8335614a4c8161503b565b92506020840135614a5c8161503b565b929592945050506040919091013590565b60008060008060808587031215614a82578081fd5b8435614a8d8161503b565b93506020850135614a9d8161503b565b925060408501359150606085013567ffffffffffffffff811115614abf578182fd5b8501601f81018713614acf578182fd5b614ade87823560208401614944565b91505092959194509250565b60008060408385031215614afc578182fd5b8235614b078161503b565b91506020830135614a2281615050565b60008060408385031215614b29578182fd5b8235614b348161503b565b946020939093013593505050565b600060208284031215614b53578081fd5b81356129c281615050565b600060208284031215614b6f578081fd5b81516129c281615050565b600060208284031215614b8b578081fd5b5035919050565b60008060408385031215614ba4578182fd5b823591506020830135614a228161503b565b600060208284031215614bc7578081fd5b81356129c28161505e565b600060208284031215614be3578081fd5b81516129c28161505e565b60008060408385031215614c00578182fd5b823567ffffffffffffffff80821115614c17578384fd5b614c23868387016149ba565b93506020850135915080821115614c38578283fd5b50614c45858286016149ba565b9150509250929050565b600060608284031215614c60578081fd5b6040516060810181811067ffffffffffffffff82111715614c8357614c83615025565b80604052508251815260208301516020820152604083015160408201528091505092915050565b600060208284031215614cbb578081fd5b5051919050565b600080600080600060a08688031215614cd9578283fd5b853594506020860135614ceb8161503b565b9350604086013567ffffffffffffffff80821115614d07578485fd5b614d1389838a016149ba565b94506060880135915080821115614d28578283fd5b50614d35888289016149ba565b9250506080860135614d468161503b565b809150509295509295909350565b60008060408385031215614d66578182fd5b50508035926020909101359150565b60008151808452614d8d816020860160208601614f4c565b601f01601f19169290920160200192915050565b60008251614db3818460208701614f4c565b9190910192915050565b60008351614dcf818460208801614f4c565b835190830190614de3818360208801614f4c565b01949350505050565b7f416363657373436f6e74726f6c3a206163636f756e7420000000000000000000815260008351614e24816017850160208801614f4c565b7f206973206d697373696e6720726f6c65200000000000000000000000000000006017918401918201528351614e61816028840160208801614f4c565b01602801949350505050565b60006001600160a01b03808716835280861660208401525083604083015260806060830152614e9f6080830184614d75565b9695505050505050565b6020815260006129c26020830184614d75565b604081526000614ecf6040830185614d75565b8281036020840152614ee18185614d75565b95945050505050565b60008219821115614efd57614efd614ff9565b500190565b600082614f1157614f1161500f565b500490565b6000816000190483118215151615614f3057614f30614ff9565b500290565b600082821015614f4757614f47614ff9565b500390565b60005b83811015614f67578181015183820152602001614f4f565b838111156128cd5750506000910152565b600081614f8757614f87614ff9565b506000190190565b600181811c90821680614fa357607f821691505b60208210811415614fc457634e487b7160e01b600052602260045260246000fd5b50919050565b6000600019821415614fde57614fde614ff9565b5060010190565b600082614ff457614ff461500f565b500690565b634e487b7160e01b600052601160045260246000fd5b634e487b7160e01b600052601260045260246000fd5b634e487b7160e01b600052604160045260246000fd5b6001600160a01b03811681146126f457600080fd5b80151581146126f457600080fd5b6001600160e01b0319811681146126f457600080fdfee1dcbdb91df27212a29bc27177c840cf2f819ecf2187432e1fac86c2dd5dfca9a26469706673582212205afe488ee46c655fd85045e9c7d88bd100140f4f2bd60893d51057185c15cb7e64736f6c63430008040033",
  "linkReferences": {},
  "deployedLinkReferences": {}
}